{
  "contractName": "HibaSale",
  "abi": [
    {
      "inputs": [],
      "stateMutability": "nonpayable",
      "type": "constructor"
    },
    {
      "inputs": [
        {
          "internalType": "address",
          "name": "",
          "type": "address"
        }
      ],
      "name": "balances",
      "outputs": [
        {
          "internalType": "uint256",
          "name": "",
          "type": "uint256"
        }
      ],
      "stateMutability": "view",
      "type": "function",
      "constant": true
    },
    {
      "inputs": [],
      "name": "coOwner",
      "outputs": [
        {
          "internalType": "address payable",
          "name": "",
          "type": "address"
        }
      ],
      "stateMutability": "view",
      "type": "function",
      "constant": true
    },
    {
      "inputs": [],
      "name": "owner",
      "outputs": [
        {
          "internalType": "address payable",
          "name": "",
          "type": "address"
        }
      ],
      "stateMutability": "view",
      "type": "function",
      "constant": true
    },
    {
      "inputs": [
        {
          "internalType": "uint256",
          "name": "amount",
          "type": "uint256"
        },
        {
          "internalType": "uint256",
          "name": "percentage",
          "type": "uint256"
        }
      ],
      "name": "calculatePercent",
      "outputs": [
        {
          "internalType": "uint256",
          "name": "",
          "type": "uint256"
        }
      ],
      "stateMutability": "pure",
      "type": "function",
      "constant": true
    },
    {
      "inputs": [],
      "name": "buyHiba",
      "outputs": [],
      "stateMutability": "payable",
      "type": "function",
      "payable": true
    }
  ],
  "bytecode": "0x608060405273b0274a52d7cf71ac50d8cdc1c1479d777e29c564600260006101000a81548173ffffffffffffffffffffffffffffffffffffffff021916908373ffffffffffffffffffffffffffffffffffffffff16021790555034801561006557600080fd5b5033600160006101000a81548173ffffffffffffffffffffffffffffffffffffffff021916908373ffffffffffffffffffffffffffffffffffffffff160217905550610993806100b66000396000f3fe60806040526004361061004a5760003560e01c806327e235e31461004f5780638da5cb5b1461008c57806391f2635b146100b7578063d1f00f08146100f4578063d6d34c7c146100fe575b600080fd5b34801561005b57600080fd5b50610076600480360381019061007191906104b6565b610129565b6040516100839190610660565b60405180910390f35b34801561009857600080fd5b506100a1610141565b6040516100ae91906105c5565b60405180910390f35b3480156100c357600080fd5b506100de60048036038101906100d991906104df565b610167565b6040516100eb9190610660565b60405180910390f35b6100fc6101e4565b005b34801561010a57600080fd5b50610113610466565b60405161012091906105c5565b60405180910390f35b60006020528060005260406000206000915090505481565b600160009054906101000a900473ffffffffffffffffffffffffffffffffffffffff1681565b600082612710808561017991906106e2565b6101839190610713565b146101c3576040517f08c379a00000000000000000000000000000000000000000000000000000000081526004016101ba90610600565b60405180910390fd5b61271082846101d29190610713565b6101dc91906106e2565b905092915050565b6658d15e176280008034101561022f576040517f08c379a0000000000000000000000000000000000000000000000000000000008152600401610226906105e0565b60405180910390fd5b6801158e460913d000008034111561027c576040517f08c379a000000000000000000000000000000000000000000000000000000000815260040161027390610640565b60405180910390fd5b6801158e460913d0000080346000803373ffffffffffffffffffffffffffffffffffffffff1673ffffffffffffffffffffffffffffffffffffffff168152602001908152602001600020546102d1919061068c565b1115610312576040517f08c379a000000000000000000000000000000000000000000000000000000000815260040161030990610620565b60405180910390fd5b600034905060006103253461251c610167565b90506000610335346101f4610167565b9050600160009054906101000a900473ffffffffffffffffffffffffffffffffffffffff1673ffffffffffffffffffffffffffffffffffffffff166108fc839081150290604051600060405180830381858888f1935050505015801561039f573d6000803e3d6000fd5b50600260009054906101000a900473ffffffffffffffffffffffffffffffffffffffff1673ffffffffffffffffffffffffffffffffffffffff166108fc829081150290604051600060405180830381858888f19350505050158015610408573d6000803e3d6000fd5b50826000803373ffffffffffffffffffffffffffffffffffffffff1673ffffffffffffffffffffffffffffffffffffffff1681526020019081526020016000206000828254610457919061068c565b92505081905550505050505050565b600260009054906101000a900473ffffffffffffffffffffffffffffffffffffffff1681565b60008135905061049b8161092f565b92915050565b6000813590506104b081610946565b92915050565b6000602082840312156104c857600080fd5b60006104d68482850161048c565b91505092915050565b600080604083850312156104f257600080fd5b6000610500858286016104a1565b9250506020610511858286016104a1565b9150509250929050565b6105248161077f565b82525050565b600061053760178361067b565b915061054282610819565b602082019050919050565b600061055a60108361067b565b915061056582610842565b602082019050919050565b600061057d60538361067b565b91506105888261086b565b606082019050919050565b60006105a0602d8361067b565b91506105ab826108e0565b604082019050919050565b6105bf816107b1565b82525050565b60006020820190506105da600083018461051b565b92915050565b600060208201905081810360008301526105f98161052a565b9050919050565b600060208201905081810360008301526106198161054d565b9050919050565b6000602082019050818103600083015261063981610570565b9050919050565b6000602082019050818103600083015261065981610593565b9050919050565b600060208201905061067560008301846105b6565b92915050565b600082825260208201905092915050565b6000610697826107b1565b91506106a2836107b1565b9250827fffffffffffffffffffffffffffffffffffffffffffffffffffffffffffffffff038211156106d7576106d66107bb565b5b828201905092915050565b60006106ed826107b1565b91506106f8836107b1565b925082610708576107076107ea565b5b828204905092915050565b600061071e826107b1565b9150610729836107b1565b9250817fffffffffffffffffffffffffffffffffffffffffffffffffffffffffffffffff0483118215151615610762576107616107bb565b5b828202905092915050565b600061077882610791565b9050919050565b600061078a82610791565b9050919050565b600073ffffffffffffffffffffffffffffffffffffffff82169050919050565b6000819050919050565b7f4e487b7100000000000000000000000000000000000000000000000000000000600052601160045260246000fd5b7f4e487b7100000000000000000000000000000000000000000000000000000000600052601260045260246000fd5b7f4e6f7420656e6f75676820424e422070726f7669646564000000000000000000600082015250565b7f416d6f756e7420746f6f20736d616c6c00000000000000000000000000000000600082015250565b7f596f752063616e6e6f742070757263686173652077697468207468697320616d60008201527f6f756e742c20546f74616c20424e422070757263686173652063616e6e6f742060208201527f6265206d6f7265207468616e20323020424e4200000000000000000000000000604082015250565b7f596f752063616e6e6f7420627579206d6f7265207468616e20323020424e422060008201527f776f727468206f66204869626100000000000000000000000000000000000000602082015250565b6109388161076d565b811461094357600080fd5b50565b61094f816107b1565b811461095a57600080fd5b5056fea264697066735822122085972c73d0f663735668501ed30aa669e65d34d7b1ab7bbe0e8322c1e09f460664736f6c63430008040033",
  "immutableReferences": {},
  "source": "// SPDX-License-Identifier: MIT\npragma solidity ^0.8.4;\n \n\ncontract HibaSale {\n    \n    mapping(address => uint) public balances;\n    address payable public owner;\n    // testnet 0xAb8483F64d9C6d1EcF9b849Ae677dD3315835cb2\n    // mainnet 0xB0274A52D7cF71Ac50D8cDC1c1479D777E29C564\n    address payable public coOwner = payable(0xB0274A52D7cF71Ac50D8cDC1c1479D777E29C564);\n    \n    constructor () {\n        owner = payable(msg.sender);\n    }\n\n     modifier min(uint _minAmount) {\n        require(msg.value >= _minAmount, 'Not enough BNB provided');\n        _;\n    }\n\n    modifier max(uint _maxAmount) {\n        require(msg.value <= _maxAmount, 'You cannot buy more than 20 BNB worth of Hiba');\n        _;\n    }\n     \n    modifier checkPossibleBuy(uint _maxBal) {\n        require((balances[msg.sender] + msg.value) <= _maxBal, 'You cannot purchase with this amount, Total BNB purchase cannot be more than 20 BNB');\n        _;\n    }\n\n   \n    function calculatePercent (uint amount, uint percentage) public pure returns(uint) {\n        require((amount / 10000) * 10000 == amount, \"Amount too small\");\n        return amount * percentage / 10000;\n    }\n    \n    function buyHiba() public payable min(0.025 ether) max(20 ether) checkPossibleBuy(20 ether){\n        // assert(1 ether == 1e18);\n        // 5% = 500 basis point\n        // 95 + 9500 basis point\n        // 100% = 10000 basis point\n        // calculatePercent for 5% of 1bnb = calculatePercent (1000000000000000000 (amount in wei),  500) returns 50000000000000000 in wei (0.05bnb)\n        uint amountInvested = msg.value; \n        uint nintyFivePcnt = calculatePercent (msg.value, 9500); // calulating msg.value * (95 /100);\n        uint FivePcnt = calculatePercent (msg.value, 500); // calculating msg.value * (5 / 100);\n        owner.transfer(nintyFivePcnt);\n        coOwner.transfer(FivePcnt);\n        balances[msg.sender] += amountInvested;\n    }\n    \n}",
  "sourcePath": "C:/Users/OWNER/Documents/private-sale/contracts/HibaSale.sol",
  "compiler": {
    "name": "solc",
    "version": "0.8.4+commit.c7e474f2.Emscripten.clang"
  },
  "schemaVersion": "3.4.1",
  "updatedAt": "2021-10-16T10:48:22.867Z",
  "networkType": "ethereum",
  "devdoc": {
    "kind": "dev",
    "methods": {},
    "version": 1
  },
  "userdoc": {
    "kind": "user",
    "methods": {},
    "version": 1
  }
}