{
  "contractName": "StakingPool",
  "abi": [
    {
      "inputs": [],
      "stateMutability": "nonpayable",
      "type": "constructor"
    },
    {
      "inputs": [
        {
          "internalType": "address",
          "name": "",
          "type": "address"
        }
      ],
      "name": "balances",
      "outputs": [
        {
          "internalType": "uint256",
          "name": "",
          "type": "uint256"
        }
      ],
      "stateMutability": "view",
      "type": "function",
      "constant": true
    },
    {
      "inputs": [],
      "name": "coOwner",
      "outputs": [
        {
          "internalType": "address payable",
          "name": "",
          "type": "address"
        }
      ],
      "stateMutability": "view",
      "type": "function",
      "constant": true
    },
    {
      "inputs": [],
      "name": "owner",
      "outputs": [
        {
          "internalType": "address payable",
          "name": "",
          "type": "address"
        }
      ],
      "stateMutability": "view",
      "type": "function",
      "constant": true
    },
    {
      "inputs": [],
      "name": "buyHiba",
      "outputs": [],
      "stateMutability": "payable",
      "type": "function",
      "payable": true
    }
  ],
  "bytecode": "0x608060405273ab8483f64d9c6d1ecf9b849ae677dd3315835cb2600260006101000a81548173ffffffffffffffffffffffffffffffffffffffff021916908373ffffffffffffffffffffffffffffffffffffffff16021790555034801561006557600080fd5b5033600160006101000a81548173ffffffffffffffffffffffffffffffffffffffff021916908373ffffffffffffffffffffffffffffffffffffffff1602179055506107bd806100b66000396000f3fe60806040526004361061003f5760003560e01c806327e235e3146100445780638da5cb5b14610081578063d1f00f08146100ac578063d6d34c7c146100b6575b600080fd5b34801561005057600080fd5b5061006b600480360381019061006691906103eb565b6100e1565b6040516100789190610516565b60405180910390f35b34801561008d57600080fd5b506100966100f9565b6040516100a3919061049b565b60405180910390f35b6100b461011f565b005b3480156100c257600080fd5b506100cb6103b0565b6040516100d8919061049b565b60405180910390f35b60006020528060005260406000206000915090505481565b600160009054906101000a900473ffffffffffffffffffffffffffffffffffffffff1681565b6701aa535d3d0c00008034101561016b576040517f08c379a0000000000000000000000000000000000000000000000000000000008152600401610162906104d6565b60405180910390fd5b6801158e460913d00000803411156101b8576040517f08c379a00000000000000000000000000000000000000000000000000000000081526004016101af906104f6565b60405180910390fd5b6801158e460913d00000806000803373ffffffffffffffffffffffffffffffffffffffff1673ffffffffffffffffffffffffffffffffffffffff1681526020019081526020016000205410610242576040517f08c379a0000000000000000000000000000000000000000000000000000000008152600401610239906104b6565b60405180910390fd5b600034905060006064605f3461025891906105c9565b6102629190610598565b90506000606460053461027591906105c9565b61027f9190610598565b9050600160009054906101000a900473ffffffffffffffffffffffffffffffffffffffff1673ffffffffffffffffffffffffffffffffffffffff166108fc839081150290604051600060405180830381858888f193505050501580156102e9573d6000803e3d6000fd5b50600260009054906101000a900473ffffffffffffffffffffffffffffffffffffffff1673ffffffffffffffffffffffffffffffffffffffff166108fc829081150290604051600060405180830381858888f19350505050158015610352573d6000803e3d6000fd5b50826000803373ffffffffffffffffffffffffffffffffffffffff1673ffffffffffffffffffffffffffffffffffffffff16815260200190815260200160002060008282546103a19190610542565b92505081905550505050505050565b600260009054906101000a900473ffffffffffffffffffffffffffffffffffffffff1681565b6000813590506103e581610770565b92915050565b6000602082840312156103fd57600080fd5b600061040b848285016103d6565b91505092915050565b61041d81610635565b82525050565b6000610430601b83610531565b915061043b826106cf565b602082019050919050565b6000610453601783610531565b915061045e826106f8565b602082019050919050565b6000610476602d83610531565b915061048182610721565b604082019050919050565b61049581610667565b82525050565b60006020820190506104b06000830184610414565b92915050565b600060208201905081810360008301526104cf81610423565b9050919050565b600060208201905081810360008301526104ef81610446565b9050919050565b6000602082019050818103600083015261050f81610469565b9050919050565b600060208201905061052b600083018461048c565b92915050565b600082825260208201905092915050565b600061054d82610667565b915061055883610667565b9250827fffffffffffffffffffffffffffffffffffffffffffffffffffffffffffffffff0382111561058d5761058c610671565b5b828201905092915050565b60006105a382610667565b91506105ae83610667565b9250826105be576105bd6106a0565b5b828204905092915050565b60006105d482610667565b91506105df83610667565b9250817fffffffffffffffffffffffffffffffffffffffffffffffffffffffffffffffff048311821515161561061857610617610671565b5b828202905092915050565b600061062e82610647565b9050919050565b600061064082610647565b9050919050565b600073ffffffffffffffffffffffffffffffffffffffff82169050919050565b6000819050919050565b7f4e487b7100000000000000000000000000000000000000000000000000000000600052601160045260246000fd5b7f4e487b7100000000000000000000000000000000000000000000000000000000600052601260045260246000fd5b7f4d617820707572636861736520616d6f756e7420726561636865640000000000600082015250565b7f4e6f7420656e6f75676820424e422070726f7669646564000000000000000000600082015250565b7f596f752063616e6e6f7420627579206d6f7265207468616e20323020424e422060008201527f776f727468206f66204869626100000000000000000000000000000000000000602082015250565b61077981610623565b811461078457600080fd5b5056fea26469706673582212200303e4cf35674fe07d7f813e46055df6b19ae7e09c5d618923ed328b7996930864736f6c63430008040033",
  "immutableReferences": {},
  "source": "// SPDX-License-Identifier: MIT\npragma solidity ^0.8.4;\n\ncontract StakingPool {\n    \n    mapping(address => uint) public balances;\n    address payable public owner;\n    address payable public coOwner = payable(0xAb8483F64d9C6d1EcF9b849Ae677dD3315835cb2);\n    \n    constructor () public{\n        owner = payable(msg.sender);\n    }\n\n     modifier min(uint _minAmount) {\n        require(msg.value >= _minAmount, 'Not enough BNB provided');\n        _;\n    }\n\n    modifier max(uint _maxAmount) {\n        require(msg.value <= _maxAmount, 'You cannot buy more than 20 BNB worth of Hiba');\n        _;\n    }\n\n    modifier checkBalance(uint _maxBal) {\n        require(balances[msg.sender] < _maxBal, 'Max purchase amount reached');\n        _;\n    }\n    \n    function buyHiba() public payable min(0.12 ether) max(20 ether) checkBalance(20 ether){\n        // assert(1 ether == 1e18);\n        uint amountInvested = msg.value; // convert user value to BNB()\n        uint nintyFivePcnt = msg.value * 95 /100;\n        uint FivePcnt = msg.value * 5 / 100;\n        owner.transfer(nintyFivePcnt);\n        coOwner.transfer(FivePcnt);\n        balances[msg.sender] += amountInvested;\n    }\n    \n}",
  "sourcePath": "C:/Users/OWNER/Documents/private-sale/contracts/StakingPool.sol",
  "compiler": {
    "name": "solc",
    "version": "0.8.4+commit.c7e474f2.Emscripten.clang"
  },
  "schemaVersion": "3.4.1",
  "updatedAt": "2021-10-04T20:42:53.347Z",
  "networkType": "ethereum",
  "devdoc": {
    "kind": "dev",
    "methods": {},
    "version": 1
  },
  "userdoc": {
    "kind": "user",
    "methods": {},
    "version": 1
  }
}