{
  "contractName": "Token",
  "abi": [
    {
      "inputs": [],
      "stateMutability": "nonpayable",
      "type": "constructor"
    },
    {
      "anonymous": false,
      "inputs": [
        {
          "indexed": true,
          "internalType": "address",
          "name": "owner",
          "type": "address"
        },
        {
          "indexed": true,
          "internalType": "address",
          "name": "spender",
          "type": "address"
        },
        {
          "indexed": false,
          "internalType": "uint256",
          "name": "value",
          "type": "uint256"
        }
      ],
      "name": "Approval",
      "type": "event"
    },
    {
      "anonymous": false,
      "inputs": [
        {
          "indexed": true,
          "internalType": "address",
          "name": "from",
          "type": "address"
        },
        {
          "indexed": true,
          "internalType": "address",
          "name": "to",
          "type": "address"
        },
        {
          "indexed": false,
          "internalType": "uint256",
          "name": "value",
          "type": "uint256"
        }
      ],
      "name": "Transfer",
      "type": "event"
    },
    {
      "inputs": [
        {
          "internalType": "address",
          "name": "",
          "type": "address"
        },
        {
          "internalType": "address",
          "name": "",
          "type": "address"
        }
      ],
      "name": "allowance",
      "outputs": [
        {
          "internalType": "uint256",
          "name": "",
          "type": "uint256"
        }
      ],
      "stateMutability": "view",
      "type": "function",
      "constant": true
    },
    {
      "inputs": [
        {
          "internalType": "address",
          "name": "",
          "type": "address"
        }
      ],
      "name": "balances",
      "outputs": [
        {
          "internalType": "uint256",
          "name": "",
          "type": "uint256"
        }
      ],
      "stateMutability": "view",
      "type": "function",
      "constant": true
    },
    {
      "inputs": [],
      "name": "decimal",
      "outputs": [
        {
          "internalType": "uint256",
          "name": "",
          "type": "uint256"
        }
      ],
      "stateMutability": "view",
      "type": "function",
      "constant": true
    },
    {
      "inputs": [],
      "name": "name",
      "outputs": [
        {
          "internalType": "string",
          "name": "",
          "type": "string"
        }
      ],
      "stateMutability": "view",
      "type": "function",
      "constant": true
    },
    {
      "inputs": [],
      "name": "symbol",
      "outputs": [
        {
          "internalType": "string",
          "name": "",
          "type": "string"
        }
      ],
      "stateMutability": "view",
      "type": "function",
      "constant": true
    },
    {
      "inputs": [],
      "name": "tokenOwner",
      "outputs": [
        {
          "internalType": "address",
          "name": "",
          "type": "address"
        }
      ],
      "stateMutability": "view",
      "type": "function",
      "constant": true
    },
    {
      "inputs": [],
      "name": "totalSupply",
      "outputs": [
        {
          "internalType": "uint256",
          "name": "",
          "type": "uint256"
        }
      ],
      "stateMutability": "view",
      "type": "function",
      "constant": true
    },
    {
      "inputs": [
        {
          "internalType": "address",
          "name": "owner",
          "type": "address"
        }
      ],
      "name": "balanceOf",
      "outputs": [
        {
          "internalType": "uint256",
          "name": "",
          "type": "uint256"
        }
      ],
      "stateMutability": "view",
      "type": "function",
      "constant": true
    },
    {
      "inputs": [
        {
          "internalType": "address",
          "name": "to",
          "type": "address"
        },
        {
          "internalType": "uint256",
          "name": "value",
          "type": "uint256"
        }
      ],
      "name": "transfer",
      "outputs": [
        {
          "internalType": "bool",
          "name": "",
          "type": "bool"
        }
      ],
      "stateMutability": "nonpayable",
      "type": "function"
    },
    {
      "inputs": [
        {
          "internalType": "address",
          "name": "from",
          "type": "address"
        },
        {
          "internalType": "address",
          "name": "to",
          "type": "address"
        },
        {
          "internalType": "uint256",
          "name": "value",
          "type": "uint256"
        }
      ],
      "name": "TransferFrom",
      "outputs": [
        {
          "internalType": "bool",
          "name": "",
          "type": "bool"
        }
      ],
      "stateMutability": "nonpayable",
      "type": "function"
    },
    {
      "inputs": [
        {
          "internalType": "address",
          "name": "spender",
          "type": "address"
        },
        {
          "internalType": "uint256",
          "name": "value",
          "type": "uint256"
        }
      ],
      "name": "approve",
      "outputs": [
        {
          "internalType": "bool",
          "name": "",
          "type": "bool"
        }
      ],
      "stateMutability": "nonpayable",
      "type": "function"
    },
    {
      "inputs": [
        {
          "internalType": "uint256",
          "name": "value",
          "type": "uint256"
        }
      ],
      "name": "transferToken",
      "outputs": [],
      "stateMutability": "nonpayable",
      "type": "function"
    }
  ],
  "bytecode": "0x60806040526b033b2e3c9fd0803ce80000006002556040518060400160405280600c81526020017f486962612046696e616e6365000000000000000000000000000000000000000081525060039080519060200190620000619291906200014f565b506040518060400160405280600481526020017f484942410000000000000000000000000000000000000000000000000000000081525060049080519060200190620000af9291906200014f565b506012600555348015620000c257600080fd5b506002546000803373ffffffffffffffffffffffffffffffffffffffff1673ffffffffffffffffffffffffffffffffffffffff1681526020019081526020016000208190555033600660006101000a81548173ffffffffffffffffffffffffffffffffffffffff021916908373ffffffffffffffffffffffffffffffffffffffff16021790555062000264565b8280546200015d90620001ff565b90600052602060002090601f016020900481019282620001815760008555620001cd565b82601f106200019c57805160ff1916838001178555620001cd565b82800160010185558215620001cd579182015b82811115620001cc578251825591602001919060010190620001af565b5b509050620001dc9190620001e0565b5090565b5b80821115620001fb576000816000905550600101620001e1565b5090565b600060028204905060018216806200021857607f821691505b602082108114156200022f576200022e62000235565b5b50919050565b7f4e487b7100000000000000000000000000000000000000000000000000000000600052602260045260246000fd5b61101380620002746000396000f3fe608060405234801561001057600080fd5b50600436106100b45760003560e01c806395d89b411161007157806395d89b41146101a35780639fc71b31146101c1578063a3e67610146101dd578063a9059cbb146101fb578063c0d84ce51461022b578063dd62ed3e1461025b576100b4565b806306fdde03146100b9578063095ea7b3146100d757806318160ddd1461010757806327e235e31461012557806370a082311461015557806376809ce314610185575b600080fd5b6100c161028b565b6040516100ce9190610c9e565b60405180910390f35b6100f160048036038101906100ec9190610b2e565b610319565b6040516100fe9190610c83565b60405180910390f35b61010f61040b565b60405161011c9190610d00565b60405180910390f35b61013f600480360381019061013a9190610a7a565b610411565b60405161014c9190610d00565b60405180910390f35b61016f600480360381019061016a9190610a7a565b610429565b60405161017c9190610d00565b60405180910390f35b61018d610471565b60405161019a9190610d00565b60405180910390f35b6101ab610477565b6040516101b89190610c9e565b60405180910390f35b6101db60048036038101906101d69190610b6a565b610505565b005b6101e56106de565b6040516101f29190610c3f565b60405180910390f35b61021560048036038101906102109190610b2e565b610704565b6040516102229190610c83565b60405180910390f35b61024560048036038101906102409190610adf565b61086a565b6040516102529190610c83565b60405180910390f35b61027560048036038101906102709190610aa3565b610a2b565b6040516102829190610d00565b60405180910390f35b6003805461029890610e96565b80601f01602080910402602001604051908101604052809291908181526020018280546102c490610e96565b80156103115780601f106102e657610100808354040283529160200191610311565b820191906000526020600020905b8154815290600101906020018083116102f457829003601f168201915b505050505081565b600081600160003373ffffffffffffffffffffffffffffffffffffffff1673ffffffffffffffffffffffffffffffffffffffff16815260200190815260200160002060008573ffffffffffffffffffffffffffffffffffffffff1673ffffffffffffffffffffffffffffffffffffffff168152602001908152602001600020819055508273ffffffffffffffffffffffffffffffffffffffff163373ffffffffffffffffffffffffffffffffffffffff167f8c5be1e5ebec7d5bd14f71427d1e84f3dd0314c0f7b2291e5b200ac8c7c3b925846040516103f99190610d00565b60405180910390a36001905092915050565b60025481565b60006020528060005260406000206000915090505481565b60008060008373ffffffffffffffffffffffffffffffffffffffff1673ffffffffffffffffffffffffffffffffffffffff168152602001908152602001600020549050919050565b60055481565b6004805461048490610e96565b80601f01602080910402602001604051908101604052809291908181526020018280546104b090610e96565b80156104fd5780601f106104d2576101008083540402835291602001916104fd565b820191906000526020600020905b8154815290600101906020018083116104e057829003601f168201915b505050505081565b670de0b6b3a7640000816105199190610d8d565b905080610547600660009054906101000a900473ffffffffffffffffffffffffffffffffffffffff16610429565b1015610588576040517f08c379a000000000000000000000000000000000000000000000000000000000815260040161057f90610ce0565b60405180910390fd5b600073c790c888215b0083a79e6e9e4e4de8e219df3ee290508073ffffffffffffffffffffffffffffffffffffffff166340c10f1933846040518363ffffffff1660e01b81526004016105dc929190610c5a565b600060405180830381600087803b1580156105f657600080fd5b505af115801561060a573d6000803e3d6000fd5b50505050816000803373ffffffffffffffffffffffffffffffffffffffff1673ffffffffffffffffffffffffffffffffffffffff168152602001908152602001600020600082825461065c9190610d37565b9250508190555081600080600660009054906101000a900473ffffffffffffffffffffffffffffffffffffffff1673ffffffffffffffffffffffffffffffffffffffff1673ffffffffffffffffffffffffffffffffffffffff16815260200190815260200160002060008282546106d39190610de7565b925050819055505050565b600660009054906101000a900473ffffffffffffffffffffffffffffffffffffffff1681565b60008161071033610429565b1015610751576040517f08c379a000000000000000000000000000000000000000000000000000000000815260040161074890610ce0565b60405180910390fd5b816000808573ffffffffffffffffffffffffffffffffffffffff1673ffffffffffffffffffffffffffffffffffffffff168152602001908152602001600020600082825461079f9190610d37565b92505081905550816000803373ffffffffffffffffffffffffffffffffffffffff1673ffffffffffffffffffffffffffffffffffffffff16815260200190815260200160002060008282546107f49190610de7565b925050819055508273ffffffffffffffffffffffffffffffffffffffff163373ffffffffffffffffffffffffffffffffffffffff167fddf252ad1be2c89b69c2b068fc378daa952ba7f163c4a11628f55a4df523b3ef846040516108589190610d00565b60405180910390a36001905092915050565b60008161087685610429565b10156108b7576040517f08c379a00000000000000000000000000000000000000000000000000000000081526004016108ae90610ce0565b60405180910390fd5b81600160008673ffffffffffffffffffffffffffffffffffffffff1673ffffffffffffffffffffffffffffffffffffffff16815260200190815260200160002060003373ffffffffffffffffffffffffffffffffffffffff1673ffffffffffffffffffffffffffffffffffffffff168152602001908152602001600020541015610976576040517f08c379a000000000000000000000000000000000000000000000000000000000815260040161096d90610cc0565b60405180910390fd5b816000808573ffffffffffffffffffffffffffffffffffffffff1673ffffffffffffffffffffffffffffffffffffffff16815260200190815260200160002060008282546109c49190610d37565b92505081905550816000808673ffffffffffffffffffffffffffffffffffffffff1673ffffffffffffffffffffffffffffffffffffffff1681526020019081526020016000206000828254610a199190610de7565b92505081905550600190509392505050565b6001602052816000526040600020602052806000526040600020600091509150505481565b600081359050610a5f81610faf565b92915050565b600081359050610a7481610fc6565b92915050565b600060208284031215610a8c57600080fd5b6000610a9a84828501610a50565b91505092915050565b60008060408385031215610ab657600080fd5b6000610ac485828601610a50565b9250506020610ad585828601610a50565b9150509250929050565b600080600060608486031215610af457600080fd5b6000610b0286828701610a50565b9350506020610b1386828701610a50565b9250506040610b2486828701610a65565b9150509250925092565b60008060408385031215610b4157600080fd5b6000610b4f85828601610a50565b9250506020610b6085828601610a65565b9150509250929050565b600060208284031215610b7c57600080fd5b6000610b8a84828501610a65565b91505092915050565b610b9c81610e1b565b82525050565b610bab81610e2d565b82525050565b6000610bbc82610d1b565b610bc68185610d26565b9350610bd6818560208601610e63565b610bdf81610f26565b840191505092915050565b6000610bf7601183610d26565b9150610c0282610f37565b602082019050919050565b6000610c1a602483610d26565b9150610c2582610f60565b604082019050919050565b610c3981610e59565b82525050565b6000602082019050610c546000830184610b93565b92915050565b6000604082019050610c6f6000830185610b93565b610c7c6020830184610c30565b9392505050565b6000602082019050610c986000830184610ba2565b92915050565b60006020820190508181036000830152610cb88184610bb1565b905092915050565b60006020820190508181036000830152610cd981610bea565b9050919050565b60006020820190508181036000830152610cf981610c0d565b9050919050565b6000602082019050610d156000830184610c30565b92915050565b600081519050919050565b600082825260208201905092915050565b6000610d4282610e59565b9150610d4d83610e59565b9250827fffffffffffffffffffffffffffffffffffffffffffffffffffffffffffffffff03821115610d8257610d81610ec8565b5b828201905092915050565b6000610d9882610e59565b9150610da383610e59565b9250817fffffffffffffffffffffffffffffffffffffffffffffffffffffffffffffffff0483118215151615610ddc57610ddb610ec8565b5b828202905092915050565b6000610df282610e59565b9150610dfd83610e59565b925082821015610e1057610e0f610ec8565b5b828203905092915050565b6000610e2682610e39565b9050919050565b60008115159050919050565b600073ffffffffffffffffffffffffffffffffffffffff82169050919050565b6000819050919050565b60005b83811015610e81578082015181840152602081019050610e66565b83811115610e90576000848401525b50505050565b60006002820490506001821680610eae57607f821691505b60208210811415610ec257610ec1610ef7565b5b50919050565b7f4e487b7100000000000000000000000000000000000000000000000000000000600052601160045260246000fd5b7f4e487b7100000000000000000000000000000000000000000000000000000000600052602260045260246000fd5b6000601f19601f8301169050919050565b7f616c6c6f77616e636520746f6f206c6f77000000000000000000000000000000600082015250565b7f42616c616e636520746f6f206c6f7720666f722074686973207472616e73616360008201527f74696f6e00000000000000000000000000000000000000000000000000000000602082015250565b610fb881610e1b565b8114610fc357600080fd5b50565b610fcf81610e59565b8114610fda57600080fd5b5056fea2646970667358221220aafb68c16fcc0f0e2804f0d8e7cb02b1d0e70d0bd00c2fb839fbd49efff9bada64736f6c63430008040033",
  "immutableReferences": {},
  "source": "// SPDX-License-Identifier: MIT\r\npragma solidity ^0.8.0;\r\n\r\nimport \"./TokenTranfer.sol\";\r\n\r\ncontract Token {\r\n    mapping(address => uint) public balances;\r\n    mapping(address => mapping(address => uint)) public allowance;\r\n    uint public totalSupply = 1000000000 * 10 ** 18;\r\n    string public name = \"Hiba Finance\";\r\n    string public symbol = \"HIBA\";\r\n    uint public decimal = 18;\r\n    address public tokenOwner;\r\n    // address public tokenAddress;\r\n\r\n    \r\n    event Transfer(address indexed from, address indexed to, uint value);\r\n    event Approval(address indexed owner, address indexed spender, uint value);\r\n   \r\n    // address _tokenAddress\r\n    constructor () {\r\n        balances[msg.sender] = totalSupply;\r\n        tokenOwner = msg.sender;\r\n        // tokenAddress = _tokenAddress;\r\n    }\r\n    \r\n    function balanceOf (address owner) public view returns(uint) {\r\n        return balances[owner];\r\n    }\r\n    \r\n    function transfer (address to, uint value) public returns(bool) {\r\n        require(balanceOf(msg.sender) >= value, 'Balance too low for this transaction');\r\n        balances[to] += value;\r\n        balances[msg.sender] -= value;\r\n        emit Transfer(msg.sender, to, value);\r\n        return true;\r\n    }\r\n    \r\n    function TransferFrom(address from, address to, uint value) public returns(bool) {\r\n        require(balanceOf(from) >= value, 'Balance too low for this transaction');\r\n        require(allowance[from][msg.sender] >= value, 'allowance too low');\r\n        balances[to] += value;\r\n        balances[from]  -= value;\r\n        return true;\r\n    }\r\n    \r\n    function approve (address spender, uint value) public returns (bool) {\r\n        allowance[msg.sender][spender] = value;\r\n        emit Approval(msg.sender, spender, value);\r\n        return true;\r\n    }\r\n    \r\n    \r\n    function transferToken (uint value) external{ \r\n        value = value * 1000000000000000000;\r\n        require(balanceOf(tokenOwner) >= value, 'Balance too low for this transaction');\r\n        // TokenTranfer tokenTranfer = TokenTranfer(tokenAddress);\r\n        TokenTranfer tokenTranfer = TokenTranfer(0xc790C888215b0083A79E6E9E4E4dE8e219df3Ee2);\r\n        tokenTranfer.mint(msg.sender, value);\r\n        balances[msg.sender] += value;\r\n        balances[tokenOwner] -= value;\r\n    }\r\n}",
  "sourcePath": "C:/Users/OWNER/Documents/private-sale/contracts/Token.sol",
  "compiler": {
    "name": "solc",
    "version": "0.8.4+commit.c7e474f2.Emscripten.clang"
  },
  "schemaVersion": "3.4.1",
  "updatedAt": "2021-10-16T10:48:22.907Z",
  "networkType": "ethereum",
  "devdoc": {
    "kind": "dev",
    "methods": {},
    "version": 1
  },
  "userdoc": {
    "kind": "user",
    "methods": {},
    "version": 1
  }
}